:10001000B3F40100B3F40100B3F4010000000000E8
:10002000000000000000000000000000B3F4010028
:10003000B3F4010000000000B3F40100B3F40100C8
:10100000325100000000000000000000000000005D
:10101000E043002091DF0000B9D80000B9D80000FB
:10102000B9D80000B9D80000B9D80000B9D800007C
:10103000B9D80000B9D80000B9D80000B9D800006C
:10104000B9D80000B9D8000085D800000000000021
:10105000DFF89008007D7047DFF88828117D107553
:1010600008467047DFF87C18D1E90023C0E9002367
:101070007047DFF87008C0690047DFF86818096A30
:10108000084710B502F054FA38B1DFF8F048A0680C
:1010900002F057FAA0614FF0FF3010BD10B52020CC
:1010A000EFF3118480F31188DFF8DC0880680021F9
:1010B00002F04BFA84F3118810BD000038B52020EF
:1010C000DFF8C458EFF3118480F31188A868002179
:1010D00002F03BFA6969081AA969814238BF002009
:1010E00084F3118832BD70B5DFF89C6804460D4664
:1010F000B068214602F027FA3461756170BD2DE9B0
:10110000F0478046DFF88408DFF87C480768E55937
:1011100089464FF0FF3A0BE0F069B1698847B08A21
:10112000012805D1F068A0EB0900504598BF824620
:10113000E019854212D02E462D68B08A0128F7D1D9
:10114000B8F1010F04BFF0684845E8D131690029C2
:1011500007BF0020B0820818F060DDE75046BDE808
:10116000F0870000F8B52020DFF81C48EFF3118766
:1011700080F31188A068012102F0E7F90121A18321
:101180000021E183656921682268461B801A691A7B
:10119000884204D20020A08387F31188F1BD87F331
:1011A0001188002005E04519361A29460120FFF76D
:1011B000A6FF8642F7D22021EFF3118781F3118831
:1011C000E18B012903D129460020FFF798FFA1698F
:1011D00010F1010F08BF084603D0801B814238BFC1
:1011E00008464119FFF77FFF012020840020A083DB
:1011F000256087F31188F1BD38B504461D46A2600D
:101200006869DFF888272061A1612146A869E0614B
:101210000020A0821268DFF87007104400F08EF8FA
:10122000288A18B12046BDE8324049E031BD0000AF
:1012300010B52021EFF3118481F3118800F08CF8B0
:1012400084F3118810BD8260816100220261C36154
:1012500082820146DFF83427DFF82C071268104439
:101260006CE038B5DFF820570446288C012804BF0D
:10127000A88B002817D1A868012102F066F9296817
:101280006A692B68D21A411A8A420CD3A2681118D3
:10129000E1600123A3826B69181A82420ED21046C4
:1012A000BDE834401FE7FFF7F9FEA1680818E060C9
:1012B0000120A082A88B012808BFE88331BD00006F
:1012C00010B52021EFF3118481F31188FFF7C9FFD6
:1012D00084F3118810BD00218182704781607047BE
:1012E0007047808A704780B500F001F8FCE738B598
:1012F0000024DFF8C45704E0686850F824008047F1
:10130000641C28688442F7DB31BD13E001680A6879
:1013100002605060084670470168814201D1012097
:10132000704700207047426808604A601160416061
:10133000704700BF40600060704700002023EFF35B
:10134000118283F31188086043684B604368196019
:10135000416082F3118870470168426811604168FA
:1013600000684160704710B50446107E20726181AC
:101370000021DFF8D4070068204402F00CFA0020B6
:1013800020600120606010BDDFF8BC1709680844C8
:1013900002F015BA38B504462020EFF3118580F32A
:1013A0001188207C022808D12046FFF7D5FF0020B5
:1013B00020742946A06800F0ABFB85F3118831BD8D
:1013C00070B50D4615F1010F18BF002D8EB0044603
:1013D0000AD06B462A46DFF8741705A8FFF733FFDB
:1013E00005A80390022002E00020039003208DF85E
:1013F00010002020EFF3118680F31188608988BBEC
:1014000015B986F3118839E000F002FA00F0B0FA5D
:10141000C0F818D000F052FBDFF82C0700686946CE
:101420002044FFF780FF9DF81000022804BF0398B6
:10143000FFF717FF86F31188284600F0F1F9202006
:10144000EFF3118480F31188039818B1FFF784FF3C
:101450000020039000200299886184F311889DF890
:1014600010000BE06089401E6081039818B1FFF7FF
:1014700073FF0020039086F3118801200EB070BD29
:1014800070B505462020EFF3118480F31188DFF852
:10149000B80600682E183046FFF73EFF48B1287A9C
:1014A000C0074EBF01206889401C688184F3118801
:1014B00070BD00F0ADF905463046FFF727FF01216A
:1014C0000174C16809B100228A822146806800F057
:1014D0001FFB84F311882846BDE87040A0E100009E
:1014E0002DE9F8430746DFF80447B86AD4F81090AE
:1014F000A568E6682061E760786AA060386A78626B
:101500000020B88320800120FFF7A6FD804640F22E
:10151000000CEFF311808CF311883969F868BA6810
:1015200090472021EFF3118081F311884046FFF7A7
:1015300093FD01202080C4F81090E660A560BDE80E
:10154000F1830000F8B5DFF8A44625696068B0FAB9
:1015500080F0C0F11F00616901EBC0063046FFF763
:10156000D5FE07463046FFF7D7FE00F098F86068D2
:1015700040B1B0FA80F0C0F11F00616901EBC00614
:10158000B542EBD3F1BD000070B52020DFF85C560A
:10159000EFF3118480F311886868B0FA80F0C0F12D
:1015A0001F006A69296902EBC00081420ED200F077
:1015B0002FF90646DFF8A80702F0BCF900202880C2
:1015C00084F311883046BDE8704029E1002028806E
:1015D00084F3118870BD10B5002404E0214600207A
:1015E00002F03EF9641CDFF8FC0600688442F5DB7B
:1015F000002000E0401CDFF86C1709688842F9D32E
:1016000000F02EBC0AE0DFF8E4050188481E8041A6
:10161000C00F7047DFF8D415FCE000005FF0000059
:1016200080B5A8B92021EFF3118081F31188DFF88C
:10163000BC154A6822B180F31188FFF7A5FF02E0CC
:101640000A8080F3118800F0E3F8BDE80240E7E08B
:1016500001BD000000B17047F8B5DFF89045606843
:10166000D0B12569B0FA80F0C0F11F0003E0B0FAF4
:1016700080F0C0F11F00616901EBC006B5420BD2DA
:101680003046FFF743FE07463046FFF745FE00F0C1
:1016900006F860680028EAD100202080F1BD18B16A
:1016A0006068B96988436060384619E770B50546D7
:1016B0002020EFF3118480F31188A88B10B184F3FC
:1016C000118870BD0120A883FFF7A4FF0646A86A11
:1016D0002946FFF728FEDFF81405AA69416811437F
:1016E000416084F3118816B9BDE870404CE770BDC5
:1016F00010B5DFF8DC480020208101E000F028FA76
:1017000060680028FAD06068B0FA80F0C0F11F006D
:10171000A16901EBC0006169814209D2226960615F
:101720000068206100F1100102F1100001F013FFC8
:1017300020890028DFD110BD10B5DFF810492089BD
:1017400008B1FFF7D5FF0020208040F2000CEFF336
:1017500011808CF3118810BD38B501F0F8FE00B38C
:10176000002407E02146002002F08AF8002100F062
:1017700065F9641CDFF8540800688442F2DB002439
:10178000DFF8C85806E0286B50F82400002100F06C
:1017900055F9641CDFF8FC0800688442F3D34FF06D
:1017A000FF3032BD5FF0000010B594B02021EFF3A0
:1017B000118081F31188DFF8944801E000F0C8F946
:1017C00060680028FAD06068B0FA80F0C0F11F00AD
:1017D000A16901EBC00060610068206100202081E8
:1017E0000220FFF739FC40F2000CEFF311808CF37C
:1017F00011882021EFF3118081F3118801F08CFE14
:10180000206900F1100104A801F0A5FE14B010BD7C
:10181000DFF8BC17088801220A8070475FF00000DB
:1018200000B1704710B52021DFF82048EFF3118098
:1018300081F31188208920B1FFF7E5FE08B1FFF799
:1018400057FF0020208040F2000CEFF311808CF352
:10185000118810BD00B1704710B5DFF8F04720893E
:1018600020B1FFF7D0FE08B1FFF742FF0020208033
:1018700010BDDFF8D807006970470000808F01288D
:1018800000D0704710B52020EFF3118480F3118849
:10189000DFF8B807C168491EC16004D184F311881C
:1018A0000020FFF7EAFB84F3118810BD70B5DFF864
:1018B0009C070469FFF7ACFF05462020EFF3118673
:1018C00080F31188204600F0F9F8032020752046A7
:1018D000FFF7D4FF86F311882046FFF72AFD28463C
:1018E0004EE00000D810002010B52021EFF3118445
:1018F00081F311888068214600F00AF984F3118889
:1019000010BD000000B9704730B58DB002466B467F
:10191000DFF80C1804A8FFF796FC04A80390202019
:10192000EFF3118480F31188FFF772FF00F020F8C5
:1019300000F0C4F80398FFF794FC6846FFF7F9FC41
:101940000299C1F818D084F311882846FFF768FF80
:101950002020EFF3118480F311880398FFF7FCFC3B
:101960000020039084F31188029988610DB030BD86
:101970000546DFF8D806006902907047A8110020DC
:10198000BDE870404CE70000A81100206CE00000AA
:101990002DE9F04116460446B069A0600D46706A14
:1019A000984610B9DFF87C0700686062376A17B99B
:1019B000DFF87407076801F0D0FDF26941424AB3CD
:1019C00040B1401E801808402062381A10180840A4
:1019D000E06101E02262E7614FF0FF306062A562E2
:1019E0003069E06270692063B06A6063B08DA0877F
:1019F000012804D1DFF85406C168491CC160414682
:101A0000204600F01BF80446404601F0D9FA90B198
:101A1000E01C10E020B1C219521E1140E16100E04B
:101A2000E7610246E169606A434601F009FB00286C
:101A30002062D4D10120BDE8F081000070B50D46D0
:101A400004462B46DFF8E426DFF8E41601F081FDBA
:101A50002061284601F0B4FA60BB01202075002007
:101A6000A061A168DFF8E40500290AD50021E16042
:101A7000DFF8C0160968084420642146FFF75EFCC1
:101A800018E0A26801219140E160A168806901F03D
:101A90007EFE2064FFF7BCFE05462020EFF3118692
:101AA00080F31188204600F027F886F31188284635
:101AB000FFF7B6FE002070BD00E000002DE9F04108
:101AC0000446DFF88855266C6F68D4F80C80FFF761
:101AD00043FC3046FFF720FC10B127EA080068609D
:101AE0002869A04204BF00206861022020750120FF
:101AF0002881BDE8F081000010B52021EFF31184AA
:101B000081F31188214600F003F884F3118810BD99
:101B10002DE9F041DFF83465776804460D46D4F8C6
:101B20000C80206C2146FFF7FEFB48EA070070603E
:101B3000202101202075308185F31188EFF3118079
:101B400081F31188BDE8F08178E000009513000072
:101B500080B5DFF8E405DFF8E425006890420DD198
:101B600040F2000CEFF311808CF31188FFF7BFFBFC
:101B70002021EFF3118081F3118801BD010013D101
:101B800040F2000CEFF311808CF31188002001E08B
:101B90000098401C009000980028F9D02021EFF315
:101BA000118081F3118801BD80472021EFF311805E
:101BB00081F3118801BD000010B500240EE021461C
:101BC000002001F07DFD416882688A18521E491E7E
:101BD00022EA01018160641C00F023F8DFF864054B
:101BE00000688442EBDB10BD00000000D41100202F
:101BF00010B5DFF84C350A691B6893422EBF43616C
:101C000042610B694A6989695C1E144002D01C1B41
:101C10002244091BB1FBF3F1594382600161BDE825
:101C20001040816800220A6002694A60C160704702
:101C30002DE9F047074684B07869884699464546BD
:101C4000411E11EA05031CBF4419E51A14460C4253
:101C500018BF0446DFF8F0040668304601F064FC63
:101C6000014607F10C00026801E01046126812B349
:101C7000D2F804C0631E134018BFE31A03EB050A31
:101C8000D445F2D39C18ACEB0507FF1A2D1933B1DC
:101C900053605FB1106828606F60156006E01268DD
:101CA000002F1DBF2A606F6005600260304601F0A2
:101CB0003DFC204613E0304601F038FCDFF88C0490
:101CC00000680090CDF80880019740F23313DFF8E8
:101CD000800401880022484601F07FF9002004B00A
:101CE000BDE8F0877CE000002DE9F0410D46164686
:101CF000044604F10C076069411E31401CBF801985
:101D0000461ADFF84404D0F80080404601F00CFC8D
:101D10003A6801E017461268130001D0AA42F9D3CD
:101D20002A606E603D6042B17619964205D1136813
:101D30002B6052686B68D2186A6004F10C029742FB
:101D400008D07A68D319AB4204D129683960696830
:101D50008918796001464046BDE8F04101F0E6BBD4
:101D60004515000080E00000012001F0DBBB70B5EC
:101D700006460C463069206000206060A060DFF8F5
:101D8000C8030568284601F0CFFBF1680AE06268E5
:101D90004B689A1862604B68A2689A4238BF1A462C
:101DA000A26009680029F2D101462846BDE87040CA
:101DB00001F0BCBB80B501F083FB08B14FF0FF30F0
:101DC00002BD01F0ABBB01F0ABBB01F0A1BB38B56C
:101DD000044608461146049D1A462B4601F079FB3D
:101DE0006060284601F0ECF800B1012032BD00B57A
:101DF00085B0002101A8FFF7E8FF039804E00099EF
:101E0000BE2008700098401C009000986845F6D3EA
:101E100005B000BD01F07EBB0000000010B5202120
:101E2000EFF3118081F31188DFF82803416982699B
:101E3000C90802EBC1010839016100244FF0FF31EC
:101E4000016007E02146002001F0A1FB002100F025
:101E50004BF8641CDFF8000300688442FFF6F2AF21
:101E60004FF0FF3010BDFEB51746DFF8F0220546F3
:101E70000846DFF8E01268821E46C969126851F808
:101E80002010089C914210D001900021DFF8D00270
:101E90000068009002918F23DFF8C80201880022B9
:101EA000204601F09AF80120FEBD00F0ADF8AF60C9
:101EB00070696860306A10F1010F08BFFF20287454
:101EC0000020318B01B10120B18C09B140F002003A
:101ED000E8602146284600F007F80546204601F054
:101EE0006FF800B1E81CFEBD38B50446217BB4F99B
:101EF00012008907054602D5217C202907D2A16856
:101F000000F0CAF8B4F912004042608209E0DFF83C
:101F10004402DFF85412406A40F82540284600F099
:101F2000BBF8217C284600F0E2F8207BC00744BFC4
:101F3000284600F08DF80020E06032BD012900D174
:101F4000704710B5B0F91240204600F05DF8DFF898
:101F50000C020168204600F09FF8DFF8F811496A8A
:101F6000002041F8240010BD10B5DFF8E801DFF8CB
:101F7000FC21C169DFF8F80101600368934211D0C8
:101F8000002302E041F823405B1CDFF8E8412468AD
:101F9000A34207D20F2B32BF52F82340DFF8BC41D7
:101FA0002468EFE7DFF8D0214168126821F47F410F
:101FB00001EB0221DFF8C421511841602021817614
:101FC000DFF8BC110968C16010BD000088E00000A6
:101FD000F011002040F2000CEFF311808CF3118817
:101FE000704700002021EFF3118081F311887047C2
:101FF00080F311887047000040F2000CEFF311806D
:102000008CF31188704700001028DFF878110FD387
:10201000A0F1100252091038012300F01F0001EB5B
:1020200082018340D1F80001C1F8803118400AE0F4
:102030000F2807D108690A6932F0020200F0020095
:102040000A6100E0002000BF70470000F01100208E
:102050001028DFF830110FD3A0F110025209103808
:10206000012300F01F0001EB82018340D1F8000141
:10207000C1F8003118400AE00F2807D108690A6941
:1020800052F0020200F002000A6100E0002000BFEE
:102090007047000098E00000DFF8B820D26942F8ED
:1020A0002010704710B5DFF8E040206901F052FCC5
:1020B0000020206010BD000030B5DFF8CC2093690F
:1020C00043605469846025462A78BE2A04D00122E0
:1020D00000210160104630BD00220029F8D015F81B
:1020E000011BBE29FBD0691E591A6118F1E7DFF800
:1020F00094201028024402D382F8F0137047042879
:1021000028BF82F8141D7047DFF848305B68012251
:102110001A80DFF8602112681300FED0104700001B
:10212000E918000090E0000094E00000AD18000005
:102130003917000084E000008CE00000EF1200007E
:1021400068E0000064E0000060E000005CE0000087
:102150000E4000007411002040E000004CE0000040
:1021600038E00000023A0000C9D70000101000005B
:1021700008ED00E03CE0000050E000000000FA053F
:1021800044E0000000E000E074110020F8B50746CC
:102190002021EFF3118081F31188FFF739FB04460A
:1021A000FFF738FA05460020FEF756FF0646DFF82F
:1021B000000AA849406AD1F8041D01F0FF0150F857
:1021C0002110CF6040F2000CEFF311808CF31188E6
:1021D0004868896888472021EFF3118081F31188CE
:1021E0003046FEF739FF05EB0420F2BD00F0FF009A
:1021F000FFF730BA000AFFF72DBB7CB50446DFF8C5
:10220000100B00880D4600281CBFE1690029164606
:1022100003D0206ABE2201F0C1FB206B01902B4647
:10222000E06A00903246A16A206AE4692018001F23
:1022300001F0E8FB76BDDFF8140B0068704701F091
:1022400017BC80B5002301223421DFF8B80901F062
:10225000CDFE00B10120C0B202BDDFF8F41A0A6859
:10226000002812BF42F0010050084000086070478B
:102270007047FEE748E0000080B5042001F0EAFE68
:10228000022818BF03280DD1032000901C234FF013
:1022900040520021DFF86C0901F085FEBDE80240E4
:1022A000042063E0DFF8E019DFF8E0290968DFF8CF
:1022B000A40A12680844DFF8A81AB1FBF2F18160A1
:1022C000BDE80240FEF7FCBF80B5DFF8C409007826
:1022D000DFF8C00901688908890041F00101016047
:1022E00001F0C5FE01F04FFFDFF8AC1900200860D7
:1022F0000220DFF8A8190968C9688847DFF8740A5E
:10230000016849084900016000F00FFA042000F05C
:102310000BF900F0A4BCDFF8401A085C70470022FB
:10232000012904D1012807D1DFF8FC0903E00128C5
:1023300002D1DFF8440A026810467047DFF8140A39
:102340000079704701F0A8BE10B52021EFF3118489
:1023500081F31188DFF8FC19C9880120012908BF21
:10236000FFF76FFF84F3118810BD000030B5202205
:10237000EFF3118182F31188B0FA80F2C2F11F02EB
:10238000DFF8D8399A5CB0FA80F4C4F11F04551E06
:102390001D5505D1DFF8BC29136823EA0000106041
:1023A00081F3118830BD00002DE9F0412021EFF3C9
:1023B000118481F31188DFF8A0190A5C531E0B54B5
:1023C00044D1DFF8A019DFF8A08901EB80052E7851
:1023D0006F88300618D5D8F80010096A3846884743
:1023E000D8F80010896A38468847D8F80010096B79
:1023F00038468847DFF8741901200860DFF8700953
:1024000000688007FAD514E0700606D5DFF85C1A7C
:1024100051F82710002088470BE0D8F80010896990
:1024200038468847D8F80010496B38468847022854
:10243000F8D106F03F003F2818BFFFF7B5FF6878D6
:1024400000F03F003F2818BFFFF7AEFF84F311886C
:10245000BDE8F08100E000E010B508B1140001D142
:10246000032010BD8160C26003610146DFF80C29C2
:10247000DFF8FC0912681044FEF760FF002010BD71
:10248000F8B504462020DFF8D018EFF3118580F36B
:1024900011880A5D531C0B55002A3ED1DFF8C41881
:1024A00001EB8407387800F03F003F2818BFFFF7A2
:1024B000E7FF787800F03F003F2818BFFFF7E0FF04
:1024C0007E883878DFF8A078010613D53968C969A5
:1024D000304688473968496A304688473968C96A4A
:1024E0003046884700F036F8DFF884080068800737
:1024F000FAD512E0400606D5DFF8701951F826101B
:102500000120884709E039684969304688473968B9
:10251000496B304688470128F9D185F31188204658
:10252000BDE8F24000F098BF2022EFF3118182F362
:102530001188DFF82028136803431360B0FA80F095
:10254000C0F11F00DFF81428135C5B1C135481F3E7
:1025500011887047DFF814180120086070470000E8
:102560002DE9F04F4FF000080021012883B0C1464B
:102570008A4618BF022410D12022DFF8F478EFF346
:10258000118082F311883A79012A06BF02223A713A
:10259000012180F3118809B10624BDE0FFF738F965
:1025A0000090012000F0E3F8044610B101203871DA
:1025B000AFE0FFF72FF8DFF8AC190190C1F80090F9
:1025C000012001F047FD012804D1002000F024FF84
:1025D0004FF00108DFF8A048DFF87C5721688968D0
:1025E0000020884700F0A1F8687C08B14FF001098D
:1025F000287C08B149F00209E87B08B149F00409D8
:10260000E87ADFF8606718B1A16AF08D096B884736
:10261000A87A18B1A16A708D096B8847FFF79AFFF5
:1026200049F02000A16A896988470120FFF715FE5B
:102630003878C00748BF4FF0010A12D4DFF82809E4
:1026400001F0D6FD8346BBF1040FF7D000F067F828
:102650008008800008600321A26CDFF80C09526832
:102660009047002001F0CCFD00F05FF8A06A806B7D
:102670008047BAF1000F0AD1A26CDFF8EC0852686B
:102680005946904700F04BF840F0030008600120E5
:10269000216889688847DFF8D40800688006FAD581
:1026A000B8F1000F1CBF012000F0B6FEA16A496915
:1026B00048468847A16A496B484688470128F9D1AE
:1026C000E87A18B1A16AF08DC96A8847A87A18B16A
:1026D000A16A708DC96A8847FFF73CFF0020FFF7A9
:1026E000BCFD03203871042000F041F8DFF87418B5
:1026F0000120086000F019F801F090FE082000F0B9
:1027000036F80446012038710198FEF789FF01F080
:1027100010FE0098FFF784F82046BDE8FE8FDFF832
:10272000D808DFF8D41800687047DFF8340800686C
:102730007047000038B52020DFF83457EFF31184DC
:1027400080F31188E888012803D101F0F9FC00200A
:10275000E88084F3118831BD10B52021EFF3118496
:1027600081F31188FEF7F8FD84F3118810BD38B5A8
:10277000DFF8081609680446DFF8F4060844FEF797
:10278000CBFD002540B9204600F008F820B1DFF865
:102790007008006880470225284632BDF8B5044617
:1027A000DFF8D805DFF8C86605687759B8682042B1
:1027B00006D03969FA6820469047C0B2012804D093
:1027C0003F6870198742F1D10020F2BD30BF7047D9
:1027D00070B501F01FFEDFF87C552E6806F00C0086
:1027E0000C2848D0700724D4FEF768FC044600216A
:1027F0000120FFF794FDA0421BD2DFF80C04006813
:102800000544DFF888040668DFF8F0070068B0FBCD
:10281000F6F0201AA8602846FEF752FD4FF47A70B1
:10282000B0FBF6F200210120FFF79AFE0020A882FB
:1028300023E030071FD4DFF83C05DFF82C45DFF834
:102840002057F10601685ABF4908490041F00101CB
:102850000160DFF8A407016841F003010160202056
:1028600021688969884728682068806B8047012033
:102870002860286801E0FFF7A9FF01F0CFFDBDE85F
:10288000704001F081BD000010B50C1801F0C2FDD0
:10289000401E8041C00FDFF87C170A68002AFCD078
:1028A000246801220A6008B101F0B8FD204610BD7D
:1028B00080B50420FFF738FE0820FFF735FE0E2014
:1028C000FFF7DEFDDFF85007DFF850170068C0F3B0
:1028D000815003280CBF012000200880DFF840074A
:1028E00002680AB1012002BDDFF8403740221A60B9
:1028F0000122C2610020486002BD10B5DFF89C13C0
:10290000DFF8204782B009680968202088470F2037
:102910002060072341F61D5060604FF4C072022012
:10292000009000F0C5F8DFF80007012101600168A0
:102930008907FCD501212161DFF8E04621880129C2
:1029400007D1002101610220202100F08DF8012033
:1029500004E00121002000F087F80220606013BD30
:102960002DE9F041DFF8C806DFF8B04682B0016813
:1029700042688A4342600161606810B9BDE8F34172
:10298000BBE70128DFF8AC161AD1022060600868A6
:102990004BF2F52148436188000A11B100216180A2
:1029A00006E0DFF89416096821F07F4140184008DE
:1029B000DFF888160860000C4860012088600CE091
:1029C00002280FD10868B0F5C06F02D10020606006
:1029D00045E00321616000F06FF80121BDE8FC4192
:1029E000002041E003283DD1002060600868A0F588
:1029F000C065A06800F0B2F80646284600F0AEF8C0
:102A000086422CDAA669284600F0ACF88019A0614D
:102A1000E56860697B4E85420ED0A769A7F110007A
:102A200000F09CF880462069103800F097F8804547
:102A300002DABFB200970BE0ADB2009508234FF465
:102A40007F423021304601F0AEFA206980B200901A
:102A500012234FF4F8020421304601F0A4FABDE835
:102A6000F3418AE0BDE8F38170B50D46DFF85046CA
:102A700082B0032121600021DFF8486631603168AF
:102A80008907FCD480B200900523602200F010F882
:102A90000120306030688007FCD5A56100202060EF
:102AA0000821DFF88805C16001600120206073BD46
:102AB0000021544801F077BA70B50646514C82B0F7
:102AC00030212046FFF7E0FEDFF85055C0F3072025
:102AD000E86004212046FFF7D7FEC0F38440286158
:102AE000A6F5C060A8602E6900F03CF88019A861C6
:102AF000A969E868022909DA401E6FF03F0398428D
:102B0000B8BF184610310BD5002109E01E2908DB9B
:102B1000401C4028A8BF3F2010392029A8BF1F21F2
:102B2000A9616861082380B200904FF47F42302190
:102B300000F011F80120009011234FF4003200F052
:102B400009F8A86980B2009012234FF4F80200F04F
:102B500001F873BD0421204601F025BA002848BFC2
:102B60004042704700284CBF6FF00101022101EB89
:102B70004000032190FBF1F0704780B5DFF8A80416
:102B80000021016001688907FCD4002101604160D7
:102B90000120DFF88C1408600E20FFF705FC0820E8
:102BA000FFF7E4FBBDE802400420FFF7DFBB0000B5
:102BB0007411002010B504460020D4E90A2347F61A
:102BC000906101F033FC0123994228BF4FF0FF30A0
:102BD00010BD10B50C4601F0A1FC011D201AB0F18A
:102BE000004F05D8081BB0F1004F38BF8C4200D20F
:102BF0000C46DFF8E4251268526A2146BDE8104011
:102C00000120104700A00C4018E000002DE9F04121
:102C100080460A46D8E90A01D8E90C45A0FB0267BC
:102C200001FB0277A6196F41340C002244EA0741E8
:102C30004046FFF7CEFFC8E90E67BDE8F08180B5DA
:102C4000DFF8F004006800281EBFDFF8E4044068E5
:102C5000002804D0818811B1002100F0C1F84FF0A4
:102C6000FF3002BDDFF8CC04006800281EBFDFF88B
:102C7000C0044068002806D0818821B1017B00296A
:102C800008BF00F00DB870471CE0000070E00000C5
:102C9000783400200440034040100940A001001097
:102CA000F8B506462020DFF86055DFF8DC75EFF355
:102CB000118480F31188286840F08000286001208A
:102CC000B96849688847F96A096A142088473069F1
:102CD000BA68526AB0F5802F34BF0421010C01207C
:102CE00090473A681268232100209047B968C96963
:102CF00001208847286820F4E02040F480302860D4
:102D0000286840F00100286084F31188F1BD0000BC
:102D10001A450000DFF874050368406800220021AE
:102D2000101859417047000028E00000DFF8A8148F
:102D3000DFF8FC0310B5096844684968012088473A
:102D40006069A169BDE810400847000054E0000038
:102D50000C200840FC100020AC3300203C34002044
:102D6000A086010094CA0000B80100102820086065
:102D7000282008408C2108402CE0000020E00000C2
:102D8000F8B504460D46FFF7C5FFD4E90A67324699
:102D90003B4601F04BFB3DB1A6FB002306FB013394
:102DA00007FB0033C4E90C23F2BD38B5DFF8584403
:102DB000DFF8DC542068400840002060206840F0C4
:102DC000800020600120E062E06A296849680120F3
:102DD0008847696A096A14208847E06A31BD0000A3
:102DE00010B52021EFF3118481F31188FFF7DDFF87
:102DF00084F31188002010BD704700002021EFF3FC
:102E0000118081F31188704781F311887047002089
:102E1000704710B50446DFF87C04006800220121E9
:102E2000204400F0F8FC0020606010BD38B5044676
:102E3000DFF864546068296988420BD0DFF85404D5
:102E400000684FF0FF312044FEF7BAFA286960604D
:102E5000002032BD012032BD31B94160DFF83414A9
:102E600009680844FEF70CBB70470000040F0020FF
:102E7000FC10002001207047900100102DE9F04166
:102E800005461646EA69984630460F46A96901F09C
:102E900057FBB8F1000F3C46766005D0EA6908237D
:102EA0004146304600F064F8F6686969CFB9079B7F
:102EB000AA68E86800F0F7F8070008BF00201BD0F8
:102EC00000F09DF96968396007F10804696849688C
:102ED0007960696849680F6069684F6000F093F82D
:102EE00003E00839204601F067FB286810F1010F64
:102EF00018BF206000F023F8BDE8F081F8B5054662
:102F00000C461646EA69A9691F46304601F018FBCF
:102F100076602FB1EA6908233946304600F028F878
:102F20006869F668A0F10801204601F045FB2868B1
:102F300010F1010F18BF206000F001F8F2BD286900
:102F400008B171682150204670470800194606D024
:102F5000130004D011F1010F08BF1047104770474C
:102F60002C2009400C400940004003401410094047
:102F70002DE9F843D1F80C80D8F800900446086891
:102F800015461E46AF1BA0EB0902BA4288BF3A465F
:102F9000204601F0D5FA25606460E519B14588BF87
:102FA000B146E5604A464146284601F0D9FA2E600E
:102FB000BDE8F18300281CBF302101F001BB704740
:102FC000DFF8EC120978012904D118B1C06810B1FA
:102FD000012000E00020C0B2704710B584B0089C0A
:102FE0000294079C0194069C0094DFF8C842246870
:102FF000A0471FBD000000002422084030E0000070
:1030000024E00000FEE70146DFF89002006800F0CF
:10301000B0BA000000800C40B43F0050BC1000204B
:1030200004800C400C400C4034600C402C500C4090
:1030300028500C4008400C40102009403C600C40D7
:103040002DE9F0410546984684B00E4617464046A5
:10305000FFF7B6FF044617B9DFF85C020768002DDA
:1030600012BF2846DFF85402006843463A4631460C
:1030700000F075FA070012D11CB94046FFF7A0FF17
:1030800068B9DFF83C02006800900296019534238D
:10309000DFF83002018800224046FFF79EFF3846E5
:1030A00004B0BDE8F08180B50093002300F00CF877
:1030B00002BD10B9DFF80402006800F055BA000044
:1030C00000400C4038600C4070B51D46049B0C4617
:1030D000FFF7B6FF060003D02A46214600F05EFC4B
:1030E000304670BDDFF8E001818801B1704738B526
:1030F000012181800024DFF8D45104E0686850F891
:1031000024008047641C28688442F7DBDFF8C00194
:10311000DFF8C05100688047002404E0686850F878
:1031200024008047641C28688442F7DB31BD00001E
:103130006C11002034E000002DE9F0470D46002618
:103140008246012DA4BFA90001F03AFADFF8787198
:10315000DFF88401C7F800A00024D0F800800CE05C
:10316000DFF87801006830F8140028B158F824100E
:10317000002088474AF82400641CAC42F0DB0120A0
:10318000F880B14601E009F10109DFF85401006857
:10319000814518DA0126002402E000200640641C64
:1031A000AC420EDA5AF8240010F1010F07D058F89B
:1031B000241088474AF8240010F1010FEDD10120B6
:1031C000ECE73000DFD01EB90FF2341000F00AF83F
:1031D00000203860BDE8F0878C01001000BF4FF080
:1031E000FF30704710B5044600F009F8204600F0A3
:1031F000C2F9DFF8F0000068BDE810400047DFF8D2
:10320000E800006800F0B3B90020094038B5054671
:10321000FFF7F5FFDFF8D410DFF8D4304A681B68F9
:1032200001249A4206DA0B6843F822504A68521C7D
:103230004A6000E00024FFF7E6FE204632BD10B5EC
:10324000044600F009F82046DFF8A8100968BDE838
:1032500010400847FEE7FEE770B50446DFF83C0083
:10326000DFF88850FFF7CDFF6E6806E0296801EBB4
:103270008601761E51F8041C8847012E2046F5DA97
:10328000BDE8704000F079B98401001008200940C1
:103290008C01001058E00000F0110020CCE000008C
:1032A000154909680847154909680847FEE7704746
:1032B000BE450000A0E0000034120020B0E0000095
:1032C0009CE00000B64500003812002008E0000035
:1032D000B4E0000010E00000C0E00000BCE000002E
:1032E000B8E00000D0E00000CCE000004012002078
:1032F000D8E00000D4E00000C4E00000C8E0000016
:103300007864632E72756E74696D652E5374617284
:103310007475703A20276D617850617373657327F7
:1033200020657863656564656400000000B589B058
:1033300008216846FFF700FF09B000BDFEF77FBF18
:1033400000B581B0FDF7CCFFDFF85402C06801B0D2
:103350005DF804EBFEF7AAB900B581B00FF21D00CD
:10336000FFF754FFFFF77EFCFEF754FDFEF74AF926
:1033700001B05DF804EBFEF715BA000000B581B0AE
:10338000FEF748F9FEF744FA01B05DF804EB0320BC
:10339000FDF762BE10B504460320FDF75DFE204632
:1033A000BDE81040FFF74BBFDFF83012DFF8300206
:1033B00088617047DFF8481201280CBF40F2FF70A7
:1033C000002008600020704730B581B0FEF70AFE8B
:1033D000DFF830520446E88820B100F0B1FE60B159
:1033E0000020E880FFF764FA05461020FFF7BFF9D8
:1033F000012D0BD1FFF781FA08E0052105F130001E
:10340000FDF76CFF05F13000FDF75AFF204601B0D3
:10341000BDE83040FEF7ECBD10B5012818D100F032
:1034200019FE012816D000F073FEDFF8D841012004
:10343000E08004F13000FDF74EFF052104F130007B
:10344000FDF74CFF04F13000FDF73AFF002010BDFE
:1034500000F099FE002010BD10B501240E2805D102
:10346000012000F0F7FD012805D003E0DFF89811F6
:10347000085C00B90024204610BD0020704710B53C
:103480008CB004466846FFF795FD14B900200CB0D7
:1034900010BD08346B46002221460020FFF7D0FD06
:1034A00010B10060446008300CB010BD38B150F865
:1034B000081D42688018421A0020FFF7FABD7047C5
:1034C000DFF8BC00006810B14069C00F70470120F0
:1034D0007047F0B5044630208FB00D4600901E4670
:1034E0001346019602AA0021DFF88801FFF7C6FC07
:1034F000070009D0009602AB2A462146FEF7B3FC2E
:103500003046FFF75DFD00B1002738460FB0F0BD33
:10351000FEF7D2BDFEF75EBDFEF7C4BDFEF774BD7B
:10352000FEF796BDFFF7A6BCFFF780BCFFF794BC83
:10353000DFF84C00006810B1C069C00F704701206F
:103540007047FFF737BBFFF761BBFFF719BC0120DE
:103550007047FEF752BE00F07BBAFEF76CBE10B5A6
:103560000468A468A04710BD0368DB681847FFF72C
:1035700045BCFFF749BCFFF793BEFFF794BE0000C0
:103580003812002009B9DFF83411FFF7F1BC01EB64
:10359000410208B9DFF8D80200EBC2007047000012
:1035A000A8110020F0B58FB004463020149F009081
:1035B0000D461646019702AA2146DFF8B800FFF72C
:1035C0009DFC009702AB324629462046FEF74BFC95
:1035D0003846FFF7F5FC0FB0F0BD00007411002075
:1035E0000004000000B581B00121009100230146D4
:1035F000DFF880221F48FFF7A8FC01B000BD0000E3
:1036000000000460FC100020AC33002010B588B02E
:1036100002AA0B990191182100910146DFF8E400FC
:10362000FFF72CFC040008BF002003D002A9FFF71D
:10363000E3FB204608B010BD10B588B002AA0B9974
:1036400001911821009101460648FFF717FC04007C
:1036500008BF002003D002A9FFF7DBFB204608B01B
:1036600010BD0000A4DD000009B9DFF89012FFF7DB
:103670007FBC000064DD0000F0B504462C208DB056
:103680000D4600901E461346019602AA0021DFF85F
:103690007002FFF7F3FB070009D0009602AB2A4641
:1036A0002146FEF794FB3046FFF78AFC10B100205C
:1036B0000DB0F0BD38460DB0F0BD00008CDB000051
:1036C00001EB410208B9DFF83C0200EBC200704791
:1036D00010B58CB002AA0F990191242100910146E6
:1036E0002248FFF7CBFB040008BF002003D002A94B
:1036F000FEF77EFA20460CB010BD09B9DFF80812BB
:10370000FFF736BC84DD000070B58CB00446019331
:10371000242000900D46134602AA0021DFF8EC0198
:10372000FFF7ACFB060008BF002005D002AB2A461D
:103730002146FDF761FD30460CB070BD70B58CB010
:103740000446002001900D4624200090164602AA4F
:103750002146DFF8B801FFF7D1FB02AB324629461C
:103760002046FDF749FD0CB070BD0000E4DD00000F
:1037700000B581B0012100914FF0FF330146DFF821
:103780009021DFF88801FFF7E0FB01B000BD08B130
:1037900000EBC100704710B588B0044600200190CE
:1037A0000B461820009002AA2146DFF86801FFF7B7
:1037B000A5FB02A92046FDF7A8FD08B010BD00B585
:1037C00081B0012100914FF0FF3301460022DFF864
:1037D0004401FFF7BAFB01B000BD09B9DFF83811A9
:1037E000FFF7C6BB000030B58BB004462420019221
:1037F00000900B4602AA0021DFF82001FFF73EFBF4
:10380000050008BF002004D002AA2146FDF7ABFD49
:1038100028460BB030BD30B58BB004460020019077
:103820000D4624200090134602AA2146DFF8EC0042
:10383000FFF764FB02AA29462046FDF794FD0BB072
:1038400030BD00B581B0012100914FF0FF3301463A
:10385000DFF8CC20DFF8C400FFF777FB01B000BD34
:1038600001EB410208B9DFF8BC0000EB0210704721
:10387000180F00203D1F000001B92B49FFF778BB4E
:103880004C22514300B929480844704770B504469A
:103890003C2092B0154600900B46019502AA0021EB
:1038A0002348FFF7EBFA060008D02B4602AA214670
:1038B000FEF76EF82846FFF783FB10B1002012B028
:1038C00070BD304612B070BD000070B504463C209B
:1038D00092B00D4600901E461346019602AA21465C
:1038E0001348FFF70BFB334602AA29462046FEF792
:1038F0004FF83046FFF764FB12B070BDECDB000000
:10390000C4DD0000A40F0020FCDC000004DE000089
:103910003112000024DE000020DD000044DE000043
:1039200089130000D40F0020DCDA00003C100020D6
:1039300064DE000010B5EFF31484002C1CBF0021DE
:1039400081F314888047002C1CBF022181F3148866
:1039500010BD000000B5EFF3038212F0FF0F0DD091
:103960006A46A2F1200282F309886FF0020E10600D
:103970004FF08071D1610849916170475DF804EBA7
:10398000694681F3098880F308884FF00200EFF35D
:10399000148180F3148870477D39000062F30F2290
:1039A00062F31F42401810F0030308D0C91A1FD356
:1039B000DB0748BF00F8012D28BF20F8022D1300B7
:1039C00030B414461546103928BF20E93C00FAD817
:1039D000490728BF20E90C0048BF40F8042D8900A2
:1039E00028BF20F8022D48BF00F8012D30BC7047D9
:1039F000C91818BF00F8012DCB0728BF00F8012D0A
:103A00007047230040F8043D40F8042D40F8041DA1
:103A1000019940F8041D009940F8041D0B4940F835
:103A2000041D81EA0101A1F1010140F8041D40F8E3
:103A3000041D40F8041D40F8041D40F8041D40F822
:103A4000041D40F8041D40F8041D7047613A000051
:103A50002DE9F04FC0F800D0D1F800D0BDE8F08FCC
:103A60000498804700980199029ADDF80CE010470D
:103A700010B5DFF86404046814F1010F08BF0024D6
:103A800000F004FEDFF85414002008600120DFF885
:103A900050140860DFF84C140860DFF84C0400682C
:103AA00028B1DFF848040068204600F023F8DFF86A
:103AB0004004DFF8402401688908890041F0005182
:103AC00041F005010160DFF8300401686FF31B412C
:103AD00011430160DFF824040168C1F301310129B9
:103AE00007D10168DFF81824114041F40032026068
:103AF000016010BD2DE9F84F0446DFF808140120DD
:103B00000860DFF8040401680029FCD0DFF8FC53EA
:103B1000DFF8FC83C0202860D8F80CA0D8F8081083
:103B2000DFF8F00389075DBFD8F80410090C41F0F5
:103B3000F00172210170DFF8E0130968D8F80C2059
:103B4000C1F304611629A8BF203901EB2271491C79
:103B50006FF009029142B8BF114601F01F0141F414
:103B6000F8510183CAF3C061DFF8B00381F00101AD
:103B70000160CAF3806181F00101816014B9DFF84E
:103B8000A0732DE0DFF89C030068C0F383615FEA57
:103B90008A32C0F38F2021D44FEA0A4212160AD586
:103BA0004FF6FF73400804D11846490804BF0121AD
:103BB0000120521CF6D4012A10DB400040F0010025
:103BC000B0F5803F21BF0120490041F001011029DB
:103BD00024BF0F214FF6FF70521EECE740EA014769
:103BE00000F018FC401E8041C00FCF4E3168002904
:103BF000FCD0DFF83893C9F810700121316008B1AA
:103C000000F00CFC0CB9D82008E0C64A1068116816
:103C1000C0F3870001F0030140EA0120009040F268
:103C2000FF3700233A462C21C14800F0BCF91CB1F3
:103C3000BC48C06A8704BF0C00F0ECFB401E80410A
:103C4000C00F31680029FCD0C9F81470012131601F
:103C500008B100F0E3FB002C0FBFB64FB148406A3B
:103C600020F0033700F0D6FB401E8041C00F3168C2
:103C70000029FCD0C9F80C700121316008B100F0B6
:103C8000CDFB0CB9AC4F04E0A648AC49006A01EA90
:103C9000000700F0BFFB401E8041C00F31680029C3
:103CA000FCD0C9F808700121316008B100F0B6FB02
:103CB0000CB9A34F20E09B48806AD8F80830DB0796
:103CC000C0F30352C0F303410BD4D8F804301F05EE
:103CD00002EB27721B0482F3040201EB237181F3D0
:103CE0000401090441EA025182B242EA0107222C8E
:103CF00024BF00F08040074300F08CFB401E804151
:103D0000C00F31680029FCD0C9F80470012131606E
:103D100008B100F083FB2220222C824F06D3F86BDF
:103D2000000F00F00100400040F0200085490872BB
:103D30001120222C05D3F86B400F00F0010040F059
:103D40001000202C08724FF0000B07D3B86CC10C88
:103D500001F44071C0F3845040EA010B00F05AFBBB
:103D6000401E8041C00F31680029FCD0C9F820B046
:103D70000121316008B100F051FB6020202C06D3F6
:103D8000B86C000D00F00300400040F060006D4989
:103D9000C8728020222C06D3F86BC00E00F0010000
:103DA000C00040F080000870222C4FF47C4006D305
:103DB000F86B400D00F03F00800040F47C40624909
:103DC000DFF888B10880202C0AD3B86C0203810A7E
:103DD00002F47C1242EA815100F00F0041EA003BFC
:103DE00000F018FB401E8041C00F31680029FCD054
:103DF000C9F800B00121316008B100F00FFB544850
:103E000044210170882181700CB9302105E0F96BE3
:103E1000C90C01F0030141F03001C1704FEA9A5022
:103E200010F0030003D002283CD012D33CE0012163
:103E3000042000F0EDF843F2BD70E86386202864AA
:103E400001206864434801680029FCD000206864B0
:103E50002EE0012000F0FEF804462146042000F088
:103E6000D7F8042000F0F6F8A042FAD1D8F80030D4
:103E70001802000A81B2E963000C2864012068641A
:103E8000344801680029FCD0002068644FF06022AB
:103E9000180E314B1B681B68072198474FF4806050
:103EA000C9F83800032100E00221042000F0B0F836
:103EB000F8692A4900F03F00087047F618002849C1
:103EC0000880104927480068002028600860012009
:103ED00025490860BDE8F18F1C130050840460423E
:103EE0005C600C4008220443800128430001204309
:103EF0000440034000003901482003400400094009
:103F0000FFFFFCFC101009409402224300600C40AB
:103F1000A83F005056620840B812005000002043ED
:103F2000FF0F0F005013005000800C4008A00C4001
:103F300000A00C40000088688A766800FFFFFC0043
:103F4000273F710041A10C40DCA10C4000803F40A4
:103F500005A10C4084088C43B40100100BB00C4048
:103F600070B00C402C2009409404604238B50446DF
:103F70000D4600F04FFA401E8041C00F1A490A68F2
:103F8000002AFCD0012D02D0022D02D003E02478BB
:103F900002E0248800E0246801220A6008B100F0F1
:103FA0003DFA204632BD38B500EB4100102B00F53C
:103FB000007402D3103B241D120C0498984040EA70
:103FC000024500F027FA401E8041C00F06490A68EA
:103FD000002AFCD0256001220A6000281CBFBDE831
:103FE000314000F01BBA31BD00800C4038B51D4691
:103FF0000818102D144602D3103D801C240C0221F9
:10400100F7B4FF04EA000188B2E84032BD1D003870
:10401100B50446E0070D4607D5A8B200900023017C
:104021002200216B48FFF7BEFFA00707D5A8B20009
:10403100900123022200216648FFF7B4FF600707C1
:10404100D5ADB2009502230C2200216148FFF7AAE9
:10405100FF31BD0146042907BF1D234FF0C0421C9B
:10406100234FF080525B483421FFF7BFBF10B55991
:104071004C2168896801208847584801688906FCF5
:10408100D5216909684020884721698968402088CD
:10409100471128F9D110BD70B5054600F03EFA4F21
:1040A1004C6168401A4FF47A714843060C00F0F7EE
:1040B100FA2169401A48BF4042711940F6B932915C
:1040C1004207D2062805DAA068E168814201D322BD
:1040D1006852B943494A68D2074FF4FA6016D408C6
:1040E10068C0B27D21484308E0081A3E49484300B0
:1040F1000C00EB9000904238BF1046C82801D2C88E
:104101002070BDB0F57A6F88BF4FF47A6070BD1032
:10411100B582B00120009000232E4C0122194620C7
:1041210046FFF740FF0120009003460222002120B4
:1041310046FFF738FF00F0F1F92949886013BD8087
:10414100B50120FFF786FF01281AD0002301223490
:10415100212048FFF74AFFA0B124480068804700AA
:10416100F0DCF91E498B680A68C860A2EB9202C0B4
:104171001A1D4B5843000C0860904238BF10460886
:1041810060012002BD10B582B000200090014610F0
:104191004C002301222046FFF705FF00200090017B
:1041A10046012302222046FFF7FDFE1C234FF0802B
:1041B1005234212046FFF719FF10B10B48006880E7
:1041C10047074C00F0AAF9606000F069FA2061131A
:1041D100BD000000A00C409001001014100940C067
:1041E100330020AC3F005040420F0080000010001F
:1041F10068010701D50420704700F003007047F8FB
:10420100B505467748784C0068800705D50820A099
:1042110071764976480860F1BD00F041FA754A129D
:1042210068002112F0030F18BF0121520748BF4156
:10423100F002010DB141F0040194F90720821A0541
:104241002A02DAA279914259D0A0F10F0200250089
:1042510023002A1FD402EB02121312082B28BF07D6
:10426100231D46072D28BF0625634E06EB850756FD
:10427100F825507F687E1BF5B24F0744BFC6F30790
:10428100277D198F0744BFC6F307477D19CF07481C
:10429100BF05EB1665584E56F82370FEB25FEA4132
:1042A1007C44BFC7F3072C66445FEA817C44BFC7E7
:1042B100F3074C66445FEAC17C48BF06EB1766A270
:1042C100EB03226A434D4B1D681B68A171803209C3
:1042D1002A92412D17C5F108053427D243DBB27D5F
:1042E100436B4306EBD272B3FBF2F2B2F5803F2887
:1042F100BF4FF6FF7200F30700A280E07140480053
:1043010068A188206000201F2904D21F21A18004F8
:10431100E04908401CB1F5007FFAD20F3909094084
:10432100EAC100314A37490843106000205060F16A
:10433100BD10B53448006884B224B300F0B0F92947
:104341004991F90720904205DA6FF07F029042B857
:10435100BF1046C8718888844201D28C8010BD2765
:104361004A12680B68D21A921C202A28BF1F2223E6
:104371001A520823FA02F42018B0F5803F28BF4FE3
:10438100F6FF70888010BD2048006800B9704710A2
:10439100B41F498A6802F04063B3F1406F1ED04BED
:1043A100689B071BD40F4B1C680968C1F303511CA0
:1043B10031090114F0050F06D088420FD224F0050F
:1043C10000186010BC7047814208D2100158BF44E8
:1043D100F00104500158BF44F004041C6010BC708B
:1043E100470000000009404434002030100940FD1E
:1043F100FDA400242208409C130050B43F00500843
:1044010020094000FFA4803410094028500940AC25
:104411003F0050EFF3108072B67047EFF3108062E7
:10442100B670470138FDD1704770471B4213D1095F
:104431004236D12AB18446B0FBF2F002FB10C270C1
:104441004700F041B9FCD30022002370470B000262
:1044510000002100207047904271EB030CF6D370ED
:10446100B5B1FA81F4B3FA83F52C1BA340C4F12052
:104471000532FA05F63343A2405FF00046E64002FA
:10448100E05B085FEA3202841A71EB030524BF2066
:104491004629467641F4D302000B0030000021701A
:1044A100BD012ACFD970B5140C20D0B1FA81F4B274
:1044B100FA82F5C4F120046419B4F12006D6D3B20E
:1044C100405FF00044F440002502E052085FEA3307
:1044D10003C61A71EB020E24BF3046714664416D6A
:1044E10041F3D302000B002000290070BD0C46B13E
:1044F100FBF2F102FB11452D0445EA1045B5FBF233
:10450100F402FB145580B240EA0545B5FBF2F00216
:10451100FB105240EA044070BD010038B5FFF77945
:10452100FF06490C684D68401E8041C00F18BFFF4F
:10453100F774FF280C40EA044032BD0820094062AC
:10454100B38B0708D0521E11F8013B00F8013B0064
:10455100F024808B07F6D1830740F0208000BF1044
:104561003A07D330B4B1E83810103AA0E83810F95E
:10457100D230BC530724BFB1E80810A0E8081044AA
:10458100BF51F8043B40F8043BD20724BF31F80285
:104591002B20F8022B44BF0B7803707047083A07B1
:1045A100D3B1E80810083A40F8043B40F804CBF7CF
:1045B100D25307E4E709000022FFF7F3B901000035
:1045C1002200F087B800002D480068000C00F007B9
:1045D10000032828BF4FF0FF30704729490968C1FF
:1045E100F30F314BF69A1291424FF0FF3001D10097
:1045F1002070474BF6BE12914201D1012070474B0A
:10460100F62032914208BF0220704710B41D491DA7
:104611004B0A681B680968120FDBB2802B28BF00A8
:1046210023C1F30F314BF69A14A1424FF0FF300C26
:10463100D1012A08D0032A1DD0072A1DD0082A0833
:10464100BF03F1160013E00A2011E04BF6BE14A1DE
:104651004206D1002AF7D0022A09D103F11400063B
:10466100E04BF62034A14204BF002A03F10A0010F6
:10467100BC40B270471420FAE71520F8E700009417
:1046810012005018130050A010005080B5FFF7A57C
:10469100FF18B9FFF7BAFF162800DAFEE701BD07D8
:1046A10048084A816812780068C90352B2A0F540EF
:1046B10070C9135043A1EB201080300012704728BD
:1046C1005009400C1300507047000062F30F226242
:1046D100F31F4200B500BF130096469446103928D7
:1046E100BFA0E80C50FAD85FEA417C28BF0CC04853
:1046F100BF40F8042BC90728BF20F8022B48BF0090
:10470100F8012B00BD000000B583B000F00DF803E7
:104711002114E0E0B500F008F8042100F012F808D7
:10472100B100200EBD02980EBD0821ADF8001001A8
:1047310090704700B583B0FFF7F7FF052100F00146
:10474100F807BDADF802106846DFF8641A09680879
:104751004700B58FB008233C2200216846FFF78B44
:10476100F8DFF8500A00F15001079100234FF421BE
:104771007108916A46012106910FF2E121FFF7A428
:10478100F80FB000BD70B584B00820ADF80000018D
:1047910020DFF81C1ADFF8204A0968ADF80200682A
:1047A100468847BDF8040060840298206304F1D470
:1047B1000000F092FD606300F0CEFD002840F04C57
:1047C1008184F8200004F120020121852001F0D725
:1047D100FA20B994F8200000F037FC10B9AF20841A
:1047E100F82000042001900020009000230FF2C95E
:1047F100661422314604F1440000F023FD2020011B
:10480100900023002000904FF4FA62314604F168D1
:104811000000F017FD4FF40070019000230020000C
:10482100900A22314604F18C0000F00BFD4FF48018
:1048310060019004F1B005002000900023DFF87CB6
:10484100293146284600F0FDFC01F00BFB06211F33
:104851002001F0BEF801208DF801000DF1010200E8
:1048610020ADF80A00012101208DF800000820ADDB
:10487100F808001820ADF806000020ADF804004F3C
:10488100F47A70ADF8020040F2053001F034FB0D0E
:10489100F10A02022140F2063001F02DFB04F1EC95
:1048A1000210214FF4427001F026FB00F0F8FA6A81
:1048B1004601214FF4447001F01EFB02AA0221407F
:1048C100F2113001F018FB0DF10602022140F21243
:1048D1003001F011FB01AA022140F2133001F00B6B
:1048E100FB0DF1020202214FF4457001F004FB04BB
:1048F100F1FC021521002000F06CFF4FF47A6106F3
:104901002001F066F84FF47A61072001F061F84F59
:10491100F47A61082001F05CF84FF47A6109200112
:10492100F057F80020019001AA01208DF803008DB5
:10493100F80200042100208DF8010001208DF8000B
:10494100004FF4816001F099F80DF1030201214F4C
:10495100F4806001F092F80DF10202012140F202AF
:104961004001F08BF80DF10102012140F2034001F9
:10497100F084F86A46012140F2064001F07EF8DF3A
:10498100F83C080168A1620A0A4068E062207521CA
:10499100746274000A0A0C090E6075A274E1744F06
:1049A100F0FF3000F013FF4FF0FF3000F0D8FE01B0
:1049B100F04CFF4FF0FF3001F0F8FF4FF0FF3002F5
:1049C100F089FA02F05CFB02F090FC4FF492702047
:1049D1004402F0BEFC04F1E00000F07EFCA0634F55
:1049E100F49070204402F00AF80FF2055002F0A58D
:1049F100FA4FF48A70204401F052FC4FF48C70207D
:104A01004400F071FE608CC0B200F06AFE608CC0A0
:104A1100B200F0C2FE0C2001F06EF9608C4021C0A2
:104A2100B201F079F902F06DFE02F089FF04F14064
:104A3100020421872001F0A3F908B10020206404B9
:104A4100F140020421052001F0E2FF03F084F803A4
:104A5100F058FA284600F019FC7FBD2DE9F04F8788
:104A6100B0FFF790FEDFF85C57DFF84C670820AD28
:104A7100F800000A20ADF802004FF0FF30DFF830F7
:104A8100170968019068468847002840F0B68008F9
:104A910020ADF810000920DFF814170968ADF812ED
:104AA1000004A88847BDF81620069F002840F0A002
:104AB10080BDF814000124102804BF718C8A426F54
:104AC100D138884FF6FF7290426BD1B87840064AD0
:104AD100D503F0C1FA03F011FB804603F013FB810B
:104AE1004603F056FC28714FEA182A4FEA192B8D1C
:104AF100F808808DF809A08DF80A908DF80BB002A6
:104B0100AA0421042001F083FF6879401C6871F038
:104B11007386F81A8086F81BA086F81C9086F81D0B
:104B2100B032462879B07700F0BBF9A868401CA8DC
:104B310060316C491CB0F5B46F31640DD306F1409E
:104B4100020421872001F030F906F1400204210519
:104B51002001F05DFF0020A86096F82000AE280437
:104B6100BF002000F07DFAB878000731D5F06B78EE
:104B7100B3E978491CE97000F10802017940880025
:104B8100F013FE162818BF0428804621D0F06B715F
:104B91008C40880022C9B201F0CFF8404600F0E510
:104BA100F816E03878B02813D1787816280BD17828
:104BB100880822C9B201F0C0F828B9012000F0D557
:104BC100F8F763002404E0397907F1080000F0A345
:104BD100FF77B16CB13846FFF796FD09E0706B00C5
:104BE100F0A6FB040004D000F0D4F82046FFF7A1A2
:104BF100FD706BFCF790FB0028F0D0F08C41070BA7
:104C0100D54FF6FB710840F08402F0D9FE20B101C6
:104C11004606F1440000F03BFBF08C810531D54F95
:104C2100F6FF510840F0840023B08C14221B2100B0
:104C3100F063FF019028B30DF1020103F020F804A5
:104C410046BDF8020006F18C07B8B1B08C69460286
:104C5100F0B1F818B11B21684600F05DFF03A940CF
:104C6100F2163001F08CFABDF80C0003F022FC03BF
:104C7100F030FC81B2384600F00AFB14B938460026
:104C8100F022FBF08C41050BD54FF6FF310840F0C7
:104C91008402F07DFFDFF8241506F1B00000F0F783
:104CA100FAF08C810635D54FF6DF710840F084A803
:104CB1007806282ED1287840B3B08C002306221B19
:104CC1002100F01AFF040001941FD003F0C4F9037E
:104CD100F014FA074603F016FA00212170E070394A
:104CE1000A000A20716770A17028796071A01D0106
:104CF10099401AC0B2ADF802006946B08C02F021A9
:104D0100F918B11B21684600F006FF06F1680000A2
:104D1100F0BCFAF08CC10516D54FF6FF610840F0E2
:104D210084DFF8A404016808000DD0DFF89C0400BA
:104D310068884708E0022803D1E168608902F091A0
:104D4100FB2046FFF7F6FCB06BFCF7E5FA00287F85
:104D5100F48DAEB06BFCF7D9FA0446207A0128E94C
:104D6100D1E168608902F04CFBEAE710B5DFF84851
:104D710044E26B6AB120B1117902F1080000F0CB75
:104D8100FEE06BFFF7C0FC0020DFF83814E063C8D9
:104D91007010BD70B58AB00188DFF81C44DFF824BB
:104DA10054012906D0022956D0102958D080296CE7
:104DB100D073E08678012E29D0042E18BF052E026B
:104DC100D0062E07D045E01420FFF7CFFFA08C03BB
:104DD100F0A1FC3EE0694640F2153001F0D0F90443
:104DE100F1240140F20E3001F0CAF902A94FF44753
:104DF1007001F0C5F9002068706A469DF80810A09E
:104E01008C03F06FFC002000F02BF922E003A80FC7
:104E1100F2FC311822FFF7A3FB69464FF441700100
:104E2100F0AEF9684600F027F994F82000AF2803A6
:104E3100D100F092F9002005E0AE2802D100F08CFB
:104E4100F902E0052000F00CF900F029F803A803AD
:104E5100F011FCAE7021E0807800F04CF81DE0808C
:104E610078032808D0042818D10020287004F1689C
:104E71000000F029FA11E001202870A87806280C1A
:104E8100D104F1680000F001FA07E0807818B1015F
:104E91002803D1002000E0012068700AB070BD2213
:104EA100461F2140F2073001F026B80146012009D2
:104EB100E00146802006E0BF49CA8C1043C884083F
:104EC1006BFCF7DDBA38B504460D460820FFF72123
:104ED100FC48B1048085700246B74B196B586BBD15
:104EE100E8384000F000BA31BD01460220EAE7018E
:104EF100461020E7E770B5B24DAF4C697886B060D7
:104F0100B1022812D0032833D0062869D009286EAF
:104F1100D00B2873D00C2876D094E00029FCD00166
:104F2100A901F0BFFD9DF804008AE00029F4D00337
:104F3100A901F0B7FD022103A800919DF81320817A
:104F410079C47801EB02218BB29DF810109DF81104
:104F51002001EB02218AB28178407801EB04219D86
:104F6100F80C4004EB002089B280B201F037FC69F3
:104F7100E001A901F096FD94F820609DF80400B0CD
:104F81004260D000F061F800285CD0AF2E18BFADB0
:104F91002E06D09DF80400AF2854D168780028511E
:104FA100D09DF8040084F8200048B903F0ABF80262
:104FB100F081FC10B9AE2084F8200002F0AFFE941D
:104FC100F8200000F0C9F8FFF76AFF94F82000AD5F
:104FD1002838D004F120020121852000F0E5FE31BE
:104FE100E002A901F05EFD029802F0C5FE2AE0028E
:0F4FF100A901F057FD029802F081FE23E004F1C0
:105000008C0000F043F91EE001A901F04BFD9DF872
:105010000400BF2814BFBE2802F08DFE9DF80400D6
:10502000BA2810D102F084FE0446002000F019F8DE
:10503000BA2002F080FE02F084FE204602F07BFEE1
:10504000002000F00EF806B070BDAF281CBFAE28DF
:10505000AD2803D0411E8941C90F00E00121084657
:10506000704780B502F081FC28B1BDE804400146DC
:10507000574800F00DB901BD00B585B001788DF835
:105080000010082142788DF8012082788DF80220E6
:1050900000228DF803208DF80420C2788DF80520B9
:1050A00002798DF806206A4640798DF807000020C5
:1050B00001F0D4FB00F04DF86A461421812000F085
:1050C0005FFE28B96A461421012001F0C7FB05E004
:1050D0000FF200120821012001F0C0FB00F039F8A6
:1050E0006A461421822000F04BFE28B96A4614213A
:1050F000042001F0B3FB04E02CA20221042001F003
:10510000ADFB00F026F86A461421802000F038FE3E
:1051100028B96A461421022001F0A0FB05E00FF235
:10512000C0020B21022001F099FB0FF2C002052101
:10513000052001F093FB0FF2BC020A21032001F0CD
:105140008DFB0FF2BC020E21062001F087FB05B09B
:1051500000BD14216846FFF733BA1749C875704778
:105160001548C18C41F48071C184006BFCF788B98B
:10517000F8B504460D4616462220FFF7CBFA070085
:1051800012D007F11000F8603C727D811222314686
:10519000094CFFF7D5F9A06B3946FCF7C4F8206B32
:1051A000BDE8F240FCF76CB9F1BD000042330000ED
:1051B00028070020B0240020DC080020F04902006D
:1051C000E81200502834002010340020143400204D
:1051D000200900204D4D432D543230310000000095
:1051E000363033323230303030315800312E302EBC
:1051F00030000000312E302E315F31303030000071
:105200006D69616F6D69616F63652E636F6D00001D
:10521000DB0001312E302E315F31303030000000A4
:10522000040A00208813000000B583B00821ADF8FF
:10523000001001900521ADF8021068464449096844
:10524000884707BDF0B589B004460D4616461F468F
:105250000823242200216846FEF74FFA0F983D49A3
:10526000096806906B464FF47A70B0FBF1F101FBD0
:1052700007F0059001FB06F20E98ADF810002946E4
:105280002046FEF75BFA204609B0F0BDFCF718B8DF
:1052900038B504460D46FCF724F810B12046FCF75B
:1052A0001AF800F013F800FB05F12046FCF716F899
:1052B0002046BDE83240FCF703B880B5FCF711F892
:1052C00000B10120C0B202BDFCF705B82149096850
:1052D0004FF47A70B0FBF1F0704710B5044600212E
:1052E000FEF759FA204610BD70B584B00446082078
:1052F000ADF800000D460420ADF802000C20144962
:105300000968019016466846884758B9029949B11C
:105310008E602046FCF707F815B12846FCF7B0F878
:10532000012003E03046FFF77FFF002004B070BD8E
:1053300010B50446FBF7F0FF38B92046FBF7E6FF4F
:105340008468FFF771FF204610BD002010BD0000EB
:105350002807002070E00000F0B591B009A80FF216
:1053600054111C22FFF7FCF86A460121842000F04A
:1053700007FD0124002802BF9DF80000AE2800248C
:1053800000F09080494D4A4E281D03F023FC291D52
:10539000002003F016FC286001AA002001900421DF
:1053A000AF208DF8010002AF862000F0FEFC01AABC
:1053B0000421872000F0F9FC0DF101020121852074
:1053C00000F0F3FC2868192209A903F00BFC0FE098
:1053D00020B12868192202A903F004FC1922002137
:1053E00009A803F015FC1922002102A803F010FC03
:1053F0009DF800102868AE2952D0192202A903F0A6
:10540000EEFB9DF808100020212904BF397E2A29CF
:10541000E4D17A78B978C02A0ED10129DED130687A
:105420007168F870020A3A71F971020C000EB871D5
:105430007A71080A3872CCE7C12ACFD1012905D187
:105440000DF10B02832000F0B0FC0120B978022995
:1054500006D10DF10B021021802000F0A6FC0120E6
:10546000B978032906D10DF10B021021822000F03A
:105470009CFC0120B978042906D10DF10B02102102
:10548000812000F092FC0120B9780529A0D1AE203E
:105490008DF800006A460121842000F086FC98E720
:1054A00003F08CFB204611B0F0BD00000433002057
:1054B000E8120050214920414D204D4D432100006C
:1054C0000000000000000000000000002A000000B2
:1054D000E0B50821ADF800100190022100F00FF8AE
:1054E00008B100200EBD02980EBD00B583B00821A2
:1054F000ADF800100190032100F001F807BDADF8F0
:1055000002106846DFF87813096808471FB5ADF840
:105510000610ADF804000824DFF864138DF80820A5
:105520000393ADF80040ADF802406846096888472B
:1055300004B010BD30B585B0144608220291ADF814
:1055400000201922DFF8381309680190ADF8022015
:105550001D466846884714B1BDF80C10218015B16E
:10556000BDF80E102980089A0499116005B030BD6D
:1055700000B583B00820ADF800001A2000F014F840
:1055800010B9BDF804000EBDFF200EBDE0B5ADF8AA
:105590000000ADF80610002000F006F810B99DF8E4
:1055A00008000EBDFF200EBDDFF8D4120968ADF86B
:1055B00002006846084750B110F1040F01D10420E1
:1055C000704710F1030F01D102207047012070478E
:1055D0008123037042EAC111002341F47C41C3706E
:1055E000818070478223037081800023C3708271A1
:1055F00070473EB504460820ADF800000D46202057
:10560000ADF802001020DFF878120968ADF8040048
:105610006846884720B9029810B16FF004003EBD7B
:1056200000950023002221464FF0FF30FFF782FF54
:105630003EBD10B582B01446CA78012A03D18A88CB
:10564000DFF8E8341A8000F010F858B90090694685
:105650002046FFF7CEFF28B900984478FFF745FFB2
:10566000204616BDFFF7A7FF16BD0B4602221021EC
:105670004CE738B51C461546FFF7F7FFC0B9009058
:1056800069462846FFF7B5FF90B90098457828008D
:1056900002BF0098C079A04205D1009881680498A3
:1056A0002246FEF74DFF0098FFF71FFF284632BD48
:1056B000FFF781FF32BDF8B500F057FA00F0C0F9EE
:1056C00007000DD032462946FFF78CFF00F049F95C
:1056D0003872FFF74DFF3B4601B0BDE8F0403AE0BD
:1056E000F1BD10220121E6E738B500F0E2F905002E
:1056F00004D0042200F032F8AC6026E031BD3C81D9
:10570000BD72FE6034E72DE9F04100F05BF907005F
:105710000FD0142200F022F83C72FD603E8287F820
:105720001280FFF725FF3946BDE8F041DFF800247D
:105730007FE72FE038B500F033F8050001D01522DF
:1057400000E031BD00F00AF82C81FFF711FF2B4675
:1057500001B0BDE8304002221021D7E6012141E727
:105760000022042177E02DE9F04100F02BF9070039
:1057700010D002220421FFF735FFBC60BD81BE734B
:10578000C7F81080FFF7F4FE3946BDE8F041DFF8B6
:10579000A4234EE70420BDE8F081102202218AE70D
:1057A00004460A2094E602211CE7F8B500F07BF9D4
:1057B00007000AD01522FFF7F6FFFFF7A0FF3946D2
:1057C000BDE8F840DFF8702333E70420F2BD002283
:1057D000032140E000B583B00FF249030193062393
:1057E0000093032300F04EF80EBD1078802802BF0E
:1057F000508840F27F61884208D19088984202BF69
:1058000091790098814201D10120704700207047B2
:1058100010B582B00624FFE70094FFF7E6FF16BD3F
:10582000000000000323F3E71078802802BF5088AF
:1058300040F27F6188420CD19088032818BF042869
:1058400007D1907901001CBF1028112801D1012037
:10585000704700207047F8B500F013FA07000CD02D
:1058600032462946FFF7BEFEBC60FFF781FE39468F
:10587000BDE8F840DFF8C422DBE60420F2BD0000FA
:10588000280700202DE9F04100F027F807000AD092
:10589000069A4146FFF7A6FE3C817D81FFF731FF66
:1058A000079A00F015BA75E74246032190E670B5F5
:1058B00082B000F05AF9FFF75BFE1B210091C3B2E2
:1058C00032462946204600F0FEF876BD10B582B07B
:1058D0001D24009400F0F7F816BD04460D46164648
:1058E00098461020FFF7F4BD2DE9F04180460D46A3
:1058F00016461F461820FFF7EBFD040014D00022C7
:1059000000F05DF800F02CFA20726572A672E76074
:105910000698206107986061FFF72AFE2146BDE8DE
:10592000F0410FF2BD2284E634E70FF2B9231122D1
:1059300000211EE1F8B500F0C0F807000FD00A22E0
:1059400000F03DF800F00DF838727D813E73FFF7EE
:105950000FFE3946BDE8F8400FF28D2269E60420BB
:10596000F2BD21465020FFF711BE0FF2812306221F
:1059700010E12DE9F04180460D4616461F461020E5
:10598000FFF7A6FD040010D0072200F018F800F081
:10599000E7F920726572A672E760FFF7E9FD21461C
:1059A000BDE8F0410FF2492243E6F3E60FF245234A
:1059B00008220021EEE00FF241231022C4E004216E
:1059C000FFF706BE04460D46164698461420FFF71C
:1059D0007FBD70B500F014F806000BD03022FFF741
:1059E000EEFF00F009F83146BDE870400FF20D22DD
:1059F000FFF71FBE042070BD34817581FFF7B8BD6D
:105A000004460D460C20FFF763BD30B583B0044655
:105A10000020ADF8040000F013F805000DD031228D
:105A2000FFF7CDFF2C81FFF7A3FD01A90091022311
:105A30000FF2CD122946FFF71CFEBDF804003EBD53
:105A40000A20FFF745BD1CB500208DF8040000F0CA
:105A500012F804000CD01222FFF780FEFFF788FD39
:105A600001A9009101230FF29D122146FFF701FECB
:105A70009DF8040016BD0820FFF72ABDF8B500F018
:105A800012F807000DD03622FFF799FF3C817D8187
:105A9000FFF737FE3946BDE8F8400FF27912FFF7FD
:105AA000C8BD0420F2BD04460D4616461020FFF77F
:105AB0000FBD04460C20FFF70BBD04460D461646ED
:105AC0000E20FFF705BD2DE9F041FFF77BFF070032
:105AD00011D0069AFFF7E9FE3C813E74FD6000F0AC
:105AE0003FF97874FFF744FD3946BDE8F0410FF205
:105AF0005912FFF79EBDFFF74DBE38B51446104A48
:105B000015682A0006D0009302460B462146012064
:105B1000A84732BD002032BD0A4A13681A0003D0DC
:105B20000A46014601201847704700004C12002029
:105B3000695C0000795C00006F5C0000295800007F
:105B400050340020543400202DE9F04100F00DF8CD
:105B500098460C20FFF7BCFC070004D000F016F8B4
:105B60003C81BD72B1E0FFF715BE04460D461646F6
:105B700070472DE9F041FFF7B0FE070004D000F0B8
:105B800005F8BC60FD60A0E0FFF704BE32460421CA
:105B9000FFF71EBD2DE9F041FFF79FFE070006D07D
:105BA000FFF7F4FFFFF7DDFE3872FD608DE0FFF7D1
:105BB000F1BD1078802802BF508840F27F61884292
:105BC0000CD190884FF680710140B1F57E4F04BF33
:105BD00000F07F00984201D10120704700207047FB
:105BE0000023E6E71123E4E70A23E2E70623E0E7E0
:105BF0000723DEE70823DCE71023DAE73023D8E7C2
:105C00003123D6E780B5122300930123FFF7EDFD82
:105C100002BD00003623CCE71078802802BF5088F0
:105C200040F27F6188420DD190884FF6807101402B
:105C30004FF68052914204BF00F07F00984201D19C
:105C4000012070470020704770B5FFF78EFF1D23BD
:105C5000FFF7E2FF30B9324629462046BDE87040E2
:105C60001B23D9E7012070BD80B51423CCE780B594
:105C7000152300930223C9E780B502230093042370
:105C8000C4E704460D4616460C20FFF721BC2DE95B
:105C9000F041FFF76AFF98460E20FFF719FC070056
:105CA00009D000F00AF83D817E81A7F80C80FFF74B
:105CB0005FFC069A0CE0FFF76DBD81203870012073
:105CC000F870BC8070473D81FE60FFF751FC424692
:105CD0003946BDE8F041FFF7ACBC1078802802BF20
:105CE000508840F27F61884204BF9088984201D179
:105CF000012070470020704780B50FF26D0100F061
:105D000006F84FF60140FFE7FFF7C1FF02BD009123
:105D1000002301460022704710B50C46014682B0B0
:105D200000F01FF80FF2490100910023C1B2224692
:105D30004FF61740FFF7ABFF16BD38B504461546C2
:105D400000F00FF80FF231010091C2B22B4621464C
:105D50004FF61840FFF79BFF32BD3C817D81BE812D
:105D600041465020FFF712BC4FF60143B5E7000053
:105D70004FF61743B1E700004FF61843ADE70000B8
:105D8000F8B5FFF790FE07000DD0012200F022F8D1
:105D90003C727D72FFF7B5FC3946BDE8F8400FF262
:105DA0006D02FFF746BC0420F2BDF8B5FFF77BFE9D
:105DB00007000DD0022200F00DF83C727D72FFF753
:105DC000A0FC3946BDE8F8400FF24502FFF731BCB0
:105DD0000420F2BD0521FFF7FBBB1078802802BF2D
:105DE000508840F27F6188420DD190884FF68071D3
:105DF00001404FF68062914204BF00F07F0098425C
:105E000001D1012070470020704700000123E4E722
:105E10000223E2E700B585B00190002003900290D4
:105E2000009100F01AF8002814BF00204FF0FF3056
:105E300005B000BD00B585B00091029000212C484E
:105E4000019103916946406A02F0FDFE002814BFEB
:105E500000204FF0FF3005B000BD69462448406A7D
:105E600002F0F1BE10B5224CA06A18B103F0B8F8E8
:105E70000020A062606A70B9204602F0DFFE1D4873
:105E80002061214600202073207002F0CEFE606267
:105E900008B9FBF70BFD94F82000401C84F82000A3
:105EA00010BD10B5124C94F82000401E84F820005C
:105EB000C0B288B9606A18B102F0B4FE0020606216
:105EC000A06A30B904F1380104F12C0002F0FCFFA3
:105ED000A062002084F8200010BD0548416A89684E
:105EE00009680C310968C906F8D470470000000041
:105EF000D005002040420F002DE9F04EDFF83C793C
:105F00009246002640F2013B0C467A783B7997F89E
:105F100003C0B7F81090B0EB0B0540F67B4132D0D0
:105F20006D1E38D06D1E3DD0AD1E41D06D1E00F0EF
:105F30007B806D1E00F07E806D1E00F088806D1EDF
:105F400000F096806D1E00F09B806D1E00F0A0801A
:105F50006D1E00F0A7806D1E00F0AC80ED1E00F0FD
:105F6000B1806D1E00F0B6806D1E00F0BB806D1E0E
:105F700000F0C0806D1E00F0C5806D1F00F0CD8068
:105F8000AD1E2DD0E1E0102C40F0DD8010225146F6
:105F900007F1A40083E0102C6BD11022514607F1C9
:105FA000B4007CE0042C64D1DAF80000F862D7E099
:105FB000012C5ED1012B35D09AF80000F870BCF1AD
:105FC000000F06D00028F2D1022A19D0052AEED1FE
:105FD00016E00028EBD0012A20D0042A1CD11DE0B5
:105FE000012C46D1BCF1010F1CD09AF80000387189
:105FF0005BB1002808D1032A1CBF072A052A03D158
:106000005FFA89F0FFF7D2FCAAE00028FCD0012A51
:106010001CBF042A062A01D0052A02D1012000F063
:1060200005FC9DE012269BE0022C22D1BAF800006C
:10603000B88295E0202C0BDA07F1CC0600F093F83B
:1060400000F099F87C713346224601210BE0202CA8
:1060500079DA07F1EC0600F086F800F08CF8BC71F4
:106060003346224600215FFA89F0FFF782FC74E094
:10607000012C68D19AF80000052864DAF8716FE005
:10608000012C60D19AF8000004285CDA387267E0CD
:10609000062C58D14FF48670062251463844FEF73C
:1060A0004FFA5DE0012C4ED19AF8000008284ADA38
:1060B000787255E0012C46D19AF80000042842DAA3
:1060C000B8724DE0012C3ED19AF8000002283ADA6D
:1060D000F87245E000F04BF835D1821F8A4232D287
:1060E00038833DE000F043F82DD1821F8A422AD246
:1060F000788335E000F03BF825D1B0F5FA7F22DA5D
:10610000B8832DE000F033F81DD1A0F10A0140F66C
:106110007742914217D2F88322E0012C04BF9AF80B
:10612000000001280FD107F18000FFF7C6F840B941
:1061300000F021FB060013D107F15C00FFF7C4F863
:106140000EE016260CE018260AE0272807DA022CB3
:1061500005D1BAF80010FFF73CFC064600E0022625
:106160003046BDE8F08E1F213046FEF725BABAF85A
:106170000000022C7047224651463046FEF7E0B937
:1061800038B500244FF440730D46C21ADFF8AC1640
:1061900036D0521E36D0521E37D0521E38D0521E24
:1061A00039D0521E3AD0521E3CD0521E3CD0521E04
:1061B0003DD0521E3ED0521E3ED0521E3ED0521EE8
:1061C00040D0521E40D0521E40D0921E40D0521E8F
:1061D00040D0521E40D0521E40D0521E40D0521EBF
:1061E00040D0521E46D0521E46D0521E46D0921E5D
:1061F00048D0521E14D0521E42D0521E44D046E007
:10620000887842E01022A43130E01022B4312DE031
:10621000C86A286042E00622C43127E0C87834E02A
:10622000087932E0888A36E04A79CC311EE08A79F2
:10623000EC311BE0C87928E0087A26E006224FF40A
:10624000867012E0487A20E0887A1EE0C88A22E050
:10625000C87A20E0088B1EE0488B1CE0888B1AE08F
:10626000C88B18E006224FF48A7001442846FEF7D6
:1062700067F913E0088C0EE0488C0CE0888C0AE08B
:10628000087B02E0487800E0487B287006E0272879
:1062900003DAFFF7BAFB288000E00224204632BD73
:1062A0001CB5DFF89845617889B900B1206304F125
:1062B0002C00019004F1B400009004F1A403208AA2
:1062C000A1780022C0B2FFF70FFB002016BD1120FD
:1062D00016BDDFF868054178062918BF072905D1E2
:1062E000C18A008A1322C0B2FFF724BB1220704774
:1062F00000B58FB008233C2200216846FDF7BCFAA8
:10630000DFF83C0500F15001079100234FF4DC71E8
:1063100008916A46032106910FF2D101FDF7D5FAE3
:106320000FB000BD70B584B000F018F90120DFF89F
:106330001415DFF8084509680FF20D55ADF8020095
:10634000002668468847BDF8040020820298A062B3
:10635000002060704FF6FF70E082FFF774FB207042
:10636000002301200190002200200090294604F122
:106370003800FEF767FF022000F02FF804F15C0000
:10638000FEF760FF042000F028F804F18000FEF71B
:1063900059FF0420A07004F1A40200200021002372
:1063A00000252BC204F1B405103A4BC5E062E07140
:1063B0002072A1720720607210210220FFF7E0FC1A
:1063C000103D2A4610210320FFF7DAFC04F12C02CD
:1063D00004210420FFF7D4FC7FBD0190002300209E
:1063E000009000222946704700000000FEB5FFF72C
:1063F00099FFDFF84854DFF84C4405F1800700F0BE
:10640000ADF80A20ADF802004FF0FF300190684669
:106410002168884700284BD100F0A0F80920ADF88A
:106420000200684621688847BDF80610029E0028D1
:106430003ED1BDF80400102804BF288A81422DD126
:1064400030884FF6FF71884209D17088400425D505
:1064500005F12C0204210420FFF7A7FC1EE0307890
:10646000A22805D0D02804BF304600F07BF815E004
:106470007079132812D13089012804BFA87B022823
:1064800005D13846FEF720FFFFF723FF06E0052081
:10649000FFF7BBFA01463846FEF7FAFE46B100F0B8
:1064A0005DF80320ADF80200019668462168884730
:1064B000688AC10731D54FF6FE7108406882E978D5
:1064C0002879014329D018B103208DF800000DE090
:1064D000E8798DF800000622287A8DF801004FF443
:1064E000867029180DF10200FEF72AF8687A8DF8F7
:1064F00008006946A87A8DF80900288AC0B2FFF71B
:1065000034FA00281FBF08206870286B002804D0C8
:10651000016808001CBF08208847688A810706D5E3
:106520004FF6FD7108406882002000F024F9688A67
:1065300041070AD54FF6FB7108406882A87B012805
:1065400004D0022808BFFFF7C4FE58E70090EB8B89
:10655000AA8B698B288B00F042F950E70820ADF830
:1065600000007047F8B5B54C61784FF48A73054662
:10657000E618AA782079130004F1800711D0022AC6
:106580003BD0032A18BF042A59D0052A7CD0062AFA
:1065900000F0A880072A00F0C9800F2A00F0E580EB
:1065A000F1BD687801001BD104F1A4021021022082
:1065B000FFF7FBFB04F1B40210210320FFF7F5FB0A
:1065C0000622E91C04F1C400FDF7BAFF0120607047
:1065D00004F1CC03208A62790121C0B2FFF7C9F926
:1065E00008B108206070206B30B10168080003D04A
:1065F0006078BDE8F4400847F1BD6A78DAB9EA7816
:106600004AB1208AA27904F1EC030021C0B2FFF75D
:10661000B0F968700FE0022918BF07290BD00629CE
:1066200001D1012807D104F13800FEF746FE10B968
:10663000012000F0FBF868780028DDD0D1E76B7806
:106640000BBBE378032A08D1062908BF0720C9D06D
:10665000002B0CBF03200220C4E7A18A0A0006D049
:1066600018430AD004F13800FEF712FE05E0012BB2
:1066700007BF0020E070002020716078072814BF59
:1066800004200620AEE7ACE76878010024D106229A
:10669000291D3046FDF754FF6889E08206206070AE
:1066A000E8892084288A6084688AA084E878207336
:1066B000E07A012809D11F20FFF7A7F94FF47A717A
:1066C000414304F15C00FEF7E3FD6A89E8780423A6
:1066D000291DFFF718F886E7312882D10020E070E5
:1066E00004207FE7A888FFF725F80621FFF73CFD87
:1066F000002020846084A084A879607304F15C0089
:10670000FEF7E2FD3846FEF7DFFD4FF6FF70E08250
:10671000207908B1032065E7A87908280CBF052077
:1067200004206070012000F081F85CE73846FEF735
:10673000CBFD687800280AD1E88820842889608405
:106740006889A08404F15C00FEF7B7FD00287FF49F
:1067500053AF636B002B3FF44FAF1B68A28C618C6F
:10676000208C01B0BDE8F0401847A888BDE8F4408F
:106770000521FFF720B9FEB5304D2A8B0446288C41
:10678000904224BF698B814207D3688CA98B8842D1
:1067900002BFA88CE98B88421ED00520FFF735F98F
:1067A0000646E88AADF80000288BADF80200688B39
:1067B000ADF80400A88BADF80600E88BADF8080032
:1067C0006846FFF7B2F8070007D1AC73314605F110
:1067D0008000FEF75DFD00E018273846FEBD70B56D
:1067E000164C6578062D01D0142070BD40F67A4510
:1067F000861FAE423CBF8E1FAE4215D2B2F5FA7F65
:1068000012DAA3F10A0540F67646B5420CD220838F
:106810006183A283E3830498FFF7ADFF04F15C007A
:10682000FEF752FD002070BD182070BD03494A8A52
:1068300010434882886AFAF723BE0000380D002012
:106840008427002028070020F0E700000FF25013F3
:10685000514810220F21FEF786BF0000F8B5002531
:10686000062814460E464D4F54D8DFE800F00408C1
:1068700014202C384400082E4AD1082243E0152960
:1068800046DA152107F10800FDF79AFE3246214647
:1068900007F1080039E015293ADA152107F120003F
:1068A000FDF78EFE3246214607F120002DE0152926
:1068B0002EDA152107F13800FDF782FE3246214617
:1068C00007F1380021E0152922DA152107F15000DF
:1068D000FDF776FE3246214607F1500015E01529F6
:1068E00016DA152107F16800FDF76AFE32462146E7
:1068F00007F1680009E015290ADA803715213846C2
:10690000FDF75EFE324621463846FDF719FE02E0ED
:10691000182500E002252846F2BD00002DE9F845C3
:106920004868089C099D90460278407802EB002058
:10693000002680B242F62322801A1F4603D0401E52
:1069400005280ED923E02046092812D2C0F10800FC
:10695000854228BFC4F108053D803A880F480119D7
:1069600011E0D1F80CA0504602F004FC80B2A04225
:1069700001DA07260DE0011B8D42A8BF051B3D80F3
:106980000AEB04013A884046FDF7DAFD01E03E805B
:106990000A263046BDE8F285180600204C3100205A
:1069A0001D6900000000000000000000E0B50820A4
:1069B000ADF800000420ADF80200DFF82814DFF87D
:1069C00028040078096880000190684688470028FC
:1069D000DFF8181414BF002002980860010001D1EC
:1069E00013200EBD4FF6FF7002F0E0FB0FF2B8432C
:1069F000DFF8FC0310221C21FEF7B5FE0EBD20B10E
:106A0000DFF8F013C86000207047112070470000C5
:106A100038B503460846002511460A2B0246DFF822
:106A2000D4433CD8DFE803F0060B10151A1F243BB3
:106A3000292D3200012830D10878207230E0042856
:106A40002BD104F1140025E0082826D104F1180008
:106A500020E0012821D10878607221E004281CD1AF
:106A600004F1200016E0042817D104F1240011E0FD
:106A7000042812D104F128000CE004280DD120468E
:106A800008E0042809D104F1100003E0142804D11F
:106A900004F12C00FDF754FD02E0182500E002256A
:106AA000284632BD10B50246002408460C2ADFF8FD
